:100000000C94DF020C9407030C9407030C94070371
:100010000C9407030C9407030C9407030C94070338
:100020000C9407030C9407030C9407030C94090326
:100030000C9407030C9407030C9407030C94070318
:100040000C9499100C9407030C94A80F0C946D0F4A
:100050000C9407030C9407030C9407030C940703F8
:100060000C9407030C94070380277D277A277727B2
:10007000742771276E2783279E279B27982795270C
:1000800092278F278C27A127622BFD2AA12FA52E2F
:100090003F2F5D2C142F252EE227E227E227E227AF
:1000A0000B2F342C942E102E8B2E4A2C282DC22C44
:1000B000862D8D2BEE2AE227E227E227E227E22790
:1000C000E227E227E227E227E227E227E227E227E8
:1000D000E227E227E227E227E227E227E227E227D8
:1000E000E227E227E227E227E227E227E227E227C8
:1000F000E227E227E227E227E227E227E227E227B8
:10010000E227E227E227E227E227E227E227E227A7
:10011000E227E227E227E227E227E227E227E22797
:10012000E227E227E227E2275928592859285928A7
:10013000A528A528A528A528A528A528A528A52857
:10014000E227E227E227E22798288B287E287928D1
:10015000752870286B28672863285E28D225E22737
:10016000E227E227E227E227E227E227E227E22747
:10017000E227E227E227E227E227E227E227E22737
:10018000E227E227E227E227E227E227E227E22727
:10019000E227E227E227E227E227E227E227E22717
:1001A000E227E227E227E227E227E227E227E22707
:1001B000E227E227E227E227E227E227E227E227F7
:1001C000E227E227E227E227E227E227E227E227E7
:1001D00059285928592859285E04A3044B0583053A
:1001E000DB041305D9056B046E0416054E05A60441
:1001F000DE04A4055B041E061B0618061506210670
:10020000DC058F050C060906060603060F06120616
:100210009805FA05F705F405F105FD050006A105A9
:10022000E805E505E205DF05EB05EE054C6F6164C9
:100230003D463100536176653D4632004D4C3D00F0
:100240006C6F616400736176650030343730353926
:1002500032373B32363932353930343934373B3244
:10026000373B00000000000000005F0000000007B6
:1002700000070000147F147F1400242A7F2A120034
:100280002313086462003649562050000008070313
:100290000000001C224100000041221C00002A1C1A
:1002A0007F1C2A0008083E0808000080703000000B
:1002B000080808080800000060600000201008041A
:1002C00002003E5149453E0000427F400000724915
:1002D000494946002141494D33001814127F10004E
:1002E0002745454539003C4A49493100412111091A
:1002F0000700364949493600464949291E00000091
:1003000014000000004034000000000814224100E6
:100310001414141414000041221408000201590995
:1003200006003E415D594E007C1211127C007F494F
:10033000494936003E41414122007F4141413E0052
:100340007F49494941007F09090901003E41415166
:1003500073007F0808087F0000417F4100002040B3
:10036000413F01007F08142241007F40404040008F
:100370007F021C027F007F0408107F003E41414144
:100380003E007F09090906003E4151215E007F09B8
:100390001929460026494949320003017F0103001B
:1003A0003F4040403F001F2040201F003F4038405A
:1003B0003F006314081463000304780403006159C8
:1003C000494D4300007F41414100020408102000D4
:1003D000004141417F0004020102040040404040CE
:1003E00040000003070800002054547840007F2894
:1003F00044443800384444442800384444287F00AA
:1004000038545454180000087E09020018A4A49C13
:1004100078007F080404780000447D4000002040FC
:10042000403D00007F102844000000417F40000054
:100430007C04780478007C08040478003844444440
:100440003800FC182424180018242418FC007C0808
:100450000404080048545454240004043F44240075
:100460003C4040207C001C2040201C003C40304090
:100470003C004428102844004C9090907C00446438
:10048000544C440000083641000000007700000092
:10049000004136080000000609060000FFFFFFFFCC
:1004A000FF004F5032004F50310000000000250087
:1004B00028002B0000000000240027002A00000074
:1004C000000023002600290004040404040404049A
:1004D00002020202020203030303030301020408EF
:1004E000102040800102040810200102040810209E
:1004F00000000008000201000003040700000000E3
:10050000000000001600180019001B001C001E004F
:10051000200021002300260028002A002D002F00A3
:100520003200350038003C003F00430047004B00DC
:100530005000540059005F0064006A0071007700A9
:100540007E0086008E0096009F00A900B300BD00CB
:10055000C800D400E100EE00FD000C011C012C01DC
:100560003E01510165017A019101A901C201DD013C
:10057000F9011702370259027C02A202CA02F502EF
:10058000220352038403BA03F2032E046E04B1045F
:10059000F90445052A0BD40B880C460D100EE70E06
:1005A000C90FBA10B811C612E41313155316A717C2
:1005B0000F198D1A211CCD1D931F73215C35112439
:1005C0001FBECFEFD8E0DEBFCDBF13E0A0E0B1E0AB
:1005D000E6E8FDE602C005900D92AE3EB107D9F700
:1005E00027E0AEEEB3E001C01D92A337B207E1F7FA
:1005F00012E0CFEDD2E004C02197FE010E94A236A6
:10060000CE3DD107C9F70E94D3200C94C1360C947B
:100610000000F8940F921F920FB60F92AF93BF9302
:10062000CF93DF93EF93FF930F931F932F933F93FA
:100630004F93A5E0222740910001439547704093D6
:100640000001CEEED3E0EC85FB850E851D85F10F14
:10065000E01FEC87FB87EF730985FA85E00F308197
:100660000A894A1779F51889B9891B1B50F5BF8586
:100670001AEFB130F1F0B23041F0B33089F0188B9D
:100680000030A1F004500A8B1DC0188B04500A8B57
:10069000BC810B17B9F413E01F87BD81B98B12C061
:1006A000188B003019F004500A8B0CC00D870E8790
:1006B00009C00C5F0A8B0C3721F402E00F87BB8165
:1006C000B98B188BBF810B9F112D3102312DEF8D0E
:1006D000FE8D09A118A1F10FE01FEF8FFE8FE30F30
:1006E000EF730C8DFD8DE00F30810DA14A1779F568
:1006F0001BA1BCA11B1B50F5BAA11AEFB130F1F040
:10070000B23041F0B33089F01BA30030A1F00450A7
:100710000DA31DC01BA304500DA3BF890B17B9F473
:1007200013E01AA3B88DBCA312C01BA3003019F0AC
:1007300004500DA30CC008A309A309C00C5F0DA3AE
:100740000C3721F402E00AA3BE89BCA31BA3BA8D17
:100750000B9F112D3102312D230FCA5DDF4FA150A8
:1007600008F071CF20582093B4004F913F912F9102
:100770001F910F91FF91EF91DF91CF91BF91AF91B9
:100780000F900FBE1F900F9078941895CF93DF9322
:10079000A62FB0E09D012F5F3F4F220F220F220FA7
:1007A00030E0C82FD0E0F90191E1899FE00DF11D03
:1007B0001124E05CFC4F8081480F511D48305105E9
:1007C00014F047E050E057FD6DC081E18C9FF001CF
:1007D0008D9FF00D11242E0F3F1FF901E05CFC4F9F
:1007E0004083415051094730510508F456C020E478
:1007F00031E083E18A9FF0018B9FF00D1124E251DB
:10080000FC4F3287218732E0360F4730510508F41C
:100810004CC080E491E023E1329FF0011124E251C9
:10082000FC4F9287818734E0360F4730510508F43A
:1008300082C180E491E023E1329FF0011124E25172
:10084000FC4F9287818736E0360F4730510508F418
:1008500069C180E491E023E1329FF0011124E2516B
:10086000FC4F9287818738E0360F4730510508F4F6
:1008700050C180E491E023E1329FF0011124E25164
:10088000FC4F92878187665F4730510508F03EC173
:10089000FA01E451FF4F0C94A236FA01ED50FF4FDC
:1008A0000C94A23640E050E090CFCA0186509F4F92
:1008B000FC010C94A23680E492E0ADCF80E492E09B
:1008C00023E1629FF0011124E251FC4F928781875E
:1008D000DF91CF91089520E432E08BCF83E18A9FAE
:1008E000F0018B9FF00D1124E251FC4F80E891E064
:1008F0009287818732E0360F23E1329FF001112485
:10090000E251FC4F9287818734E0360F23E1329F1A
:10091000F0011124E251FC4F9287818736E0360FB7
:1009200023E1329FF0011124E251FC4F928781872D
:1009300038E0360F23E1329FF0011124E251FC4FE1
:1009400092878187665F80E891E0BACF83E18A9FD2
:10095000F0018B9FF00D1124E251FC4F80E892E0F2
:100960009287818732E0360F23E1329FF001112414
:10097000E251FC4F9287818734E0360F23E1329FAA
:10098000F0011124E251FC4F9287818736E0360F47
:1009900023E1329FF0011124E251FC4F92878187BD
:1009A00038E0360F23E1329FF0011124E251FC4F71
:1009B00092878187665F80E892E082CF83E18A9F99
:1009C000F0018B9FF00D1124E251FC4F80EC92E07E
:1009D0009287818732E0360F23E1329FF0011124A4
:1009E000E251FC4F9287818734E0360F23E1329F3A
:1009F000F0011124E251FC4F9287818736E0360FD7
:100A000023E1329FF0011124E251FC4F928781874C
:100A100038E0360F23E1329FF0011124E251FC4F00
:100A200092878187665F80EC92E04ACF83E18A9F5C
:100A3000F0018B9FF00D1124E251FC4F80EC91E00E
:100A40009287818732E0360F23E1329FF001112433
:100A5000E251FC4F9287818734E0360F23E1329FC9
:100A6000F0011124E251FC4F9287818736E0360F66
:100A700023E1329FF0011124E251FC4F92878187DC
:100A800038E0360F23E1329FF0011124E251FC4F90
:100A900092878187665F80EC91E012CF83E18A9F25
:100AA000F0018B9FF00D1124E251FC4F80E092E0A9
:100AB0009287818732E0360F23E1329FF0011124C3
:100AC000E251FC4F9287818734E0360F23E1329F59
:100AD000F0011124E251FC4F9287818736E0360FF6
:100AE00023E1329FF0011124E251FC4F928781876C
:100AF00038E0360F23E1329FF0011124E251FC4F20
:100B000092878187665F80E092E0DACE80E491E0B0
:100B1000D7CECA018F5F9E4FFC010C94A23680E4B1
:100B200092E0A9CECA01885F9E4FFC010C94A236C8
:100B300080E492E090CECA01815F9E4FFC010C944C
:100B4000A23680E492E077CE83E18A9FF0018B9F0A
:100B5000F00D1124E251FC4F80E093E092878187F1
:100B600032E0360F23E1329FF0011124E251FC4FB5
:100B70009287818734E0360F23E1329FF001112400
:100B8000E251FC4F9287818736E0360F23E1329F96
:100B9000F0011124E251FC4F9287818738E0360F33
:100BA00023E1329FF0011124E251FC4F92878187AB
:100BB000665F80E093E084CE80E093E0D3CF80E86E
:100BC00092E0DCCE80E092E081CF80EC91E046CFF5
:100BD00080E891E09BCE80EC92E008CF80E093E04B
:100BE000CBCF80E892E0D4CE80E092E079CF80EC69
:100BF00091E03ECF80E891E093CE80EC92E000CF90
:100C000080E093E0C3CF80E892E0CCCE80E092E039
:100C100071CF80EC91E036CF80E891E08BCE80EC14
:100C200092E0F8CE80E093E0BBCF80E892E09CCEEB
:100C300080E092E041CF80EC91E006CF80E891E047
:100C40005BCE80EC92E0C8CECF93DF93262F220FAD
:100C5000220F220F2A5F30E0C82FD0E0F90191E186
:100C6000899FE00DF11D1124E05CFC4F8081480F4D
:100C7000511D4032510514F04FE150E057FD41C085
:100C800081E18C9FD0018D9FB00D11242A0F3B1F55
:100C9000D901A05CBC4F4C934095440F440F440FC6
:100CA00083E1869FF0011124E251FC4F4783E2E08B
:100CB000E60F8E9FF0011124E251FC4F4783E4E0E0
:100CC000E60F8E9FF0011124E251FC4F4783E6E0CE
:100CD000E60F8E9FF0011124E251FC4F4783E8E0BC
:100CE000E60F8E9FF0011124E251FC4F4783665FAF
:100CF000869FF0011124E251FC4F4783DF91CF9191
:100D0000089540E050E0BCCF0F931F93CF93DF9343
:100D10002091800630918106A901415F5F4F28989C
:100D20009AE29EBD00000DB407FEFDCF9EB5289A45
:100D30003EBD00000DB407FEFDCF9EB52EBD0000E8
:100D40000DB407FEFDCF9EB55EBD00000DB407FEDD
:100D5000FDCF9EB54EBD00000DB407FEFDCF9EB584
:100D60002091820630918306A901455F5F4F289844
:100D70009BE29EBD00000DB407FEFDCF9EB5289AF4
:100D80003EBD00000DB407FEFDCF9EB52EBD000098
:100D90000DB407FEFDCF9EB55EBD00000DB407FE8D
:100DA000FDCF9EB54EBD00000DB407FEFDCF9EB534
:100DB00028989CE29EBD00000DB407FEFDCF9EB5B5
:100DC000289A082E000C990B80979C01220F331F44
:100DD000820F931F880F991FEC01CE59DD4FDC0164
:100DE000A859BD4FFE018491E82FF0E002E010E029
:100DF00067E070E0CF01062E02C0959587950A94B2
:100E0000E2F780FF20C02091AA033091A90382E07D
:100E100090E02EBD00000DB407FEFDCF4EB53EBDE7
:100E200000000DB407FEFDCF4EB5019719F081E02B
:100E300090E0EFCF61507109E8F60130110531F013
:100E400001E010E0D5CF30E020E0E1CF2196CA17D5
:100E5000DB0709F0C7CF80918206909183060C963C
:100E60009093830680938206DF91CF911F910F911B
:100E700008958EBD00000DB407FEFDCF8EB5089518
:100E800028988EBD00000DB407FEFDCF8EB5289AC0
:100E900008956F927F928F929F92AF92BF92CF925E
:100EA000DF92EF92FF920F931F93CF93DF932091E6
:100EB000820630918306EC01C21BD30BD7FDC3C061
:100EC00040918006509181067B01E41AF50AF7FCF7
:100ED000BEC0281739070CF4B2C0CC24CA94DC2C4D
:100EE000461757070CF4A7C0AA24AA94BA2CDE010F
:100EF000AE19BF096090AA03EBE27E2EFCE28F2EB2
:100F0000002711270E191F09EAE29E2EE52F2898C7
:100F10009EBC00000DB407FEFDCFFEB5289AEEBDC5
:100F200000000DB407FEFDCF5EB5542F4EBD00008E
:100F30000DB407FEFDCF4EB5EEBD00000DB407FEAB
:100F4000FDCF4EB55EBD00000DB407FEFDCF4EB522
:100F5000432F28987EBC00000DB407FEFDCF5EB580
:100F6000289A4EBD00000DB407FEFDCF3EB5322FCE
:100F70002EBD00000DB407FEFDCF2EB54EBD000006
:100F80000DB407FEFDCF2EB53EBD00000DB407FE2B
:100F9000FDCF2EB528988EBC00000DB407FEFDCF06
:100FA0002EB5289A6EBC00000DB407FEFDCF2EB5FD
:100FB0002091A9032EBD00000DB407FEFDCF2EB574
:100FC0002091820630918306213F31052CF5409116
:100FD00080065091810628173907D9F0FD01EE0FE0
:100FE000FF1F0E171F0744F4AE19BF092C0D3D1D3E
:100FF0003093830620938206EC17FD070CF086CF12
:10100000AC0FBD1F4A0D5B1D5093810640938006B7
:101010007DCF4617570711F7DF91CF911F910F91A1
:10102000FF90EF90DF90CF90BF90AF909F908F9008
:101030007F906F900895AA24A394B12C58CFCC240C
:10104000C394D12C4DCFD195C195D10939CFF1940D
:10105000E194F1083ECF28982AE22EBD00000DB49D
:1010600007FEFDCF2EB5289A7EBD00000DB407FE09
:10107000FDCF2EB56EBD00000DB407FEFDCF2EB521
:101080007EBD00000DB407FEFDCF2EB56EBD000085
:101090000DB407FEFDCF2EB528982BE22EBD000023
:1010A0000DB407FEFDCF2EB5289A9EBD00000DB4ED
:1010B00007FEFDCF2EB58EBD00000DB407FEFDCF9F
:1010C0002EB59EBD00000DB407FEFDCF9EB58EBDB2
:1010D00000000DB407FEFDCF8EB528988CE28EBDC2
:1010E00000000DB407FEFDCF8EB5289A8091AA03AB
:1010F0008EBD00000DB407FEFDCF8EB58091A90313
:101100008EBD00000DB407FEFDCF8EB50895289862
:101110008AE28EBD00000DB407FEFDCF8EB5289A81
:101120001EBC00000DB407FEFDCF8EB51EBC000036
:101130000DB407FEFDCF8EB51EBC00000DB407FE3A
:10114000FDCF8EB58FEE8EBD00000DB407FEFDCF36
:101150008EB528988BE28EBD00000DB407FEFDCF42
:101160008EB5289A1EBC00000DB407FEFDCF8EB5CB
:101170001EBC00000DB407FEFDCF8EB51EBC0000E6
:101180000DB407FEFDCF8EB58FEE8EBD00000DB401
:1011900007FEFDCF8EB528988AE38EBD00000DB402
:1011A00007FEFDCF8EB5289A83E08EBD00000DB4FA
:1011B00007FEFDCF8EB528988CE28EBD00000DB4E1
:1011C00007FEFDCF8EB5289A48E750E080ED92E00B
:1011D0001EBC00000DB407FEFDCF2EB50197C1F770
:1011E0004150510999F728988AE38EBD00000DB44B
:1011F00007FEFDCF8EB5289A85E08EBD00000DB4A8
:1012000007FEFDCF8EB508952F923F924F925F92C9
:101210006F927F928F929F92AF92BF92CF92DF9206
:10122000EF92FF920F931F93CF93DF93E82E0E94CC
:101230000A13892BE1F383EC90E00197F1F7809199
:101240006F008D7F80936F008091C1008F7E8093AF
:10125000C1008091C2008F7B8093C200C0EED4E0B9
:10126000FE0124910CEC14E0F8018491882399F09C
:1012700090E0880F991FFC01EC54FB4FA591B491AD
:10128000FC01E655FB4F859194918FB7F8949C91A2
:10129000292B2C938FBF83EC90E00197F1F74CED55
:1012A000642E44E0742EF301249158EC852E54E012
:1012B000952EF4018491882399F090E0880F991F6E
:1012C000FC01EC54FB4FA591B491FC01E655FB4F9A
:1012D000859194918FB7F8949C91292B2C938FBF73
:1012E00083EC90E00197F1F7FE018491F8012491DD
:1012F0002223C1F030E0220F331FF901EC54FB4FE1
:10130000A591B491F901E655FB4F259134914FB762
:10131000F8949C91809598239C93F901908189235E
:1013200080834FBF0E940A130197E1F38FE590E09D
:101330000197F1F7F12C84EF94E028E030E0512C94
:1013400041E050E0AFE52A2E312CBA016E217F2119
:10135000F301672B09F412C14490F40164916623F0
:10136000C9F070E0660F771FFB01EC54FB4FC5908E
:10137000D490FB01E655FB4FA590B4907FB7F8944D
:10138000F6016081409464216083F501608146220A
:1013900040827FBF5394FC016491FE01D490F80118
:1013A0007491772369F06111C2C0E72FF0E0EE0F6E
:1013B000FF1FE254FB4FA591B4916C91D62259F7CF
:1013C000FC016491FE01D490F80174917723C1F37C
:1013D00061119AC0E72FF0E0EE0FFF1FE254FB4FC0
:1013E000A591B4916C91D62259F3F1013197F1F79F
:1013F000440F551F2150310909F0A7CFF30150FECA
:1014000004C12491F4018491882399F090E0880F1D
:10141000991FFC01EC54FB4FA591B491FC01E655DA
:10142000FB4F859194918FB7F8949C91292B2C9325
:101430008FBF0E940A130197E1F30E940A13892BC0
:10144000E1F38FE590E00197F1F7F3016490F40187
:1014500084918823B9F090E0880F991FFC01EC5427
:10146000FB4FC591D491FC01E655FB4FA591B4917A
:101470009FB7F89488816094862188838C91682234
:101480006C929FBF0E940A130197E1F30E940A1316
:10149000892BE1F30E940A130197E1F30E940A13DA
:1014A000892BE1F38091C1008F778093C1008091F7
:1014B000C10080618093C1008091C20080648093EC
:1014C000C2008091C00087FFFCCF8091C600909140
:1014D000C10090689093C10090916F0092609093CA
:1014E0006F00DF91CF911F910F91FF90EF90DF90F0
:1014F000CF90BF90AF909F908F907F906F905F90B4
:101500004F903F902F900895633009F452C010F12E
:10151000673009F470C0683009F467C0643009F0BE
:1015200059CF609180006F7D6093800053CF63300E
:1015300009F451C0C8F0673009F447C0683009F4B5
:101540003EC0643009F031CF609180006F7D6093C0
:1015500080002BCF613009F444C0623009F03ACFEB
:1015600064B56F7D64BD36CF613009F44AC0623026
:1015700009F01BCF64B56F7D64BD17CF4490F401B3
:101580006491662309F407CF70E0660F771FFB01B3
:10159000EC54FB4FC590D490FB01E655FB4FA59052
:1015A000B4906FB7F894F6017081472A40826FBFFC
:1015B000F2CE609180006F77609380000BCF6091D6
:1015C000B0006F7D6093B000F0CE6091B0006F7797
:1015D0006093B000EACE609180006F7760938000E6
:1015E000E4CE64B56F7764BDF5CE6091B0006F7DD9
:1015F0006093B000EFCE6091B0006F776093B00061
:10160000E9CE64B56F7764BDD0CE2491F4018491A6
:10161000882309F40ECF90E0880F991FFC01EC5449
:10162000FB4FA591B491FC01E655FB4FC591D491B8
:101630003FB7F8949C91822F809598239C93988132
:10164000892388833FBF0E940A13019709F4F1CED2
:10165000F4CEFF920F931F93CF93DF9380EE97E02A
:101660009093AA038093A9030E9410200E944D1F0B
:101670008FE190E09093AA038093A90380E590E026
:1016800090938306809382068FE090E0909381068A
:101690008093800628988AE28EBD00000DB407FE74
:1016A000FDCF8EB5289A1EBC00000DB407FEFDCFFD
:1016B0008EB58FE08EBD00000DB407FEFDCF8EB558
:1016C0001EBC00000DB407FEFDCF8EB58EE58EBDAD
:1016D00000000DB407FEFDCF8EB58091820690917B
:1016E00083069C0123563F4F28984BE24EBD0000D5
:1016F0000DB407FEFDCF4EB5289A9EBD00000DB477
:1017000007FEFDCF9EB58EBD00000DB407FEFDCFD8
:101710008EB53EBD00000DB407FEFDCF8EB52EBDCB
:1017200000000DB407FEFDCF8EB528988CE28EBD6B
:1017300000000DB407FEFDCF8EB5289A80EC92E62E
:101740002091AA032EBD00000DB407FEFDCF3EB5CB
:101750003091A9033EBD00000DB407FEFDCF3EB59C
:10176000019781F780E590E090938306809382064D
:1017700087E890E0909381068093800628988AE21B
:101780008EBD00000DB407FEFDCF8EB5289A1EBC9D
:1017900000000DB407FEFDCF8EB587E88EBD0000BA
:1017A0000DB407FEFDCF8EB51EBC00000DB407FEC4
:1017B000FDCF8EB586ED8EBD00000DB407FEFDCFCA
:1017C0008EB58091820690918306AC0143565F4F9F
:1017D00028983BE23EBD00000DB407FEFDCF3EB5AC
:1017E000289A9EBD00000DB407FEFDCF9EB58EBDAC
:1017F00000000DB407FEFDCF8EB55EBD00000DB438
:1018000007FEFDCF8EB54EBD00000DB407FEFDCF27
:101810008EB528988CE28EBD00000DB407FEFDCF7A
:101820008EB5289A80EC92E62EBD00000DB407FE1E
:10183000FDCF3EB53091A9033EBD00000DB407FEBB
:10184000FDCF3EB5019781F70E94681B0E94851766
:10185000F090F60385E090E09093830680938206F3
:1018600082E890E0909381068093800683ED9CE966
:101870009093AA038093A903CCE3D2E0FE01849164
:10188000882351F00DE312E00E948406F801849150
:101890000F5F1F4F8111F8CFF9E0FF1508F065C009
:1018A000F6EFFF0E81E328E230E0309383062093C9
:1018B000820602E810E010938106009380060E94E1
:1018C000840684E390E090938306809382061093CD
:1018D00081060093800680E38F0D0E94840610919C
:1018E000090485E090E090938306809382068AE065
:1018F00090E0909381068093800683ED9CE990931D
:10190000AA038093A903FE018491882349F0CDE3C3
:10191000D2E00E948406FE01849121968111F9CFC4
:101920001A3028F11A5081E328E230E03093830620
:1019300020938206CAE0D0E0D0938106C09380064F
:101940000E94840684E390E090938306809382064D
:10195000D0938106C093800680E3810FDF91CF9101
:101960001F910F91FF900C94840680E29CCF80E23F
:10197000DBCFAF92BF92DF92EF92FF920F931F9354
:10198000CF93DF938111C1C0A090F703B090F8030B
:1019900081ED91EA21EA30E0CEEBD0E01092AA038B
:1019A0001092A90341E050E05093830640938206D1
:1019B000309381062093800628982AE22EBD0000ED
:1019C0000DB407FEFDCF2EB5289A1EBC00000DB445
:1019D00007FEFDCF2EB59EBD00000DB407FEFDCF66
:1019E0009EB51EBC00000DB407FEFDCF9EB58EBD9A
:1019F00000000DB407FEFDCF8EB580918206909158
:101A000083069C01295B3F4F28984BE24EBD0000A6
:101A10000DB407FEFDCF4EB5289A9EBD00000DB453
:101A200007FEFDCF9EB58EBD00000DB407FEFDCFB5
:101A30008EB53EBD00000DB407FEFDCF8EB52EBDA8
:101A400000000DB407FEFDCF8EB528988CE28EBD48
:101A500000000DB407FEFDCF8EB5289A80E99BE10A
:101A60003091AA033EBD00000DB407FEFDCF2EB598
:101A70002091A9032EBD00000DB407FEFDCF2EB5A9
:101A8000019781F780EE9FEF9093AA038093A903BB
:101A900003E010E0BE01C8010E942B080C5F1F4F3D
:101AA0000F331105B9F780EE97E09093AA03809366
:101AB000A903DA2C8501005C1F4F75010DC0359517
:101AC0002795B9016C0F7D1F869590E00F960E94B7
:101AD0002B08E016F10679F08E2D8D19F701219172
:101AE0007F01022E000C330B3595279537FFE7CF8A
:101AF0002F5F3F4FE4CFDF91CF911F910F91FF9068
:101B0000EF90DF90BF90AF900895A0900A04B0903E
:101B10000B0489E599E229E230E0C6E4D0E03ECF4B
:101B2000660F660F660F70E0282F30E0FB0191E131
:101B3000899FE00DF11D1124E05CFC4F8081480F6E
:101B4000511D4830510514F047E050E057FD1DC0CD
:101B500081E1829FF001839FF00D11246E0F7F1FA2
:101B6000FB01E05CFC4F4083473069F04093EE039B
:101B70004093140440933A044093600440938604D5
:101B80004093AC04089548E0F1CF40E050E0E0CF4E
:101B9000FC0181E0808F938D848D981709F444C0F7
:101BA000238D30E02F5F3F4F2F733327822F03C0E9
:101BB0000FB607FE14C0948D8917D1F3838DDF0112
:101BC000A80FB11DA35ABF4F6C93238F0288F389CE
:101BD000E02D80818062808381E090E00895A0897B
:101BE000B1899C9195FFE7CF948DDF01A90FB11DBD
:101BF000A35ABF4F9C91448D50E04F5F5F4F4F738E
:101C00005527448FA689B7899C93A089B1899C9157
:101C100090649C93438D948D4913CDCFA289B38951
:101C20009C919F7D9C93C7CFA089B1898C9185FFA2
:101C3000B7CFA689B7896C930088F189E02D8081A0
:101C40008064808381E090E00895BF92CF92DF921C
:101C5000EF92FF920F931F93CF93DF93411551059E
:101C600009F47CC06A01EC017B0100E010E0BB24B8
:101C7000B394E881F9810190F081E02DD7016D9155
:101C80007D01BDE0E83CFB0709F062C0B88E9B8D8A
:101C90008C8D981709F44EC0EB8DF0E03196EF7300
:101CA000FF272E2F03C00FB607FE20C09C8D2917DB
:101CB000D1F38B8DDE01A80FB11DA35ABF4F6C93DA
:101CC000EB8FEA89FB898081806280830F5F1F4FE1
:101CD000C016D10671F6C801DF91CF911F910F9107
:101CE000FF90EF90DF90CF90BF900895A889B989B9
:101CF0008C9185FFDBCF8C8DDE01A80FB11DA35A1F
:101D0000BF4F3C918C8D90E001968F7399278C8FFB
:101D1000AE89BF893C93A889B9898C9180648C93E2
:101D20009B8D8C8D9813C2CFAA89BB898C918F7D96
:101D30008C93BCCFE889F989808185FFADCFEE898E
:101D4000FF896083E889F989808180648083BECFC0
:101D5000CE010995892B09F0B9CFBDCF00E010E085
:101D6000BACFFC01918D228D892F90E0805C9F4F2E
:101D7000821B91098F73992708952091DD06809128
:101D8000DE0630E0205C3F4F281B31092F733327DC
:101D900081E0232B09F480E00895089580E090E02D
:101DA0000895CF93DF93DC0158968C915897882340
:101DB00009F446C05296ED91FC9153975096CD91FF
:101DC000DC915197908195FF38C00FB607FCFACF90
:101DD000908195FFF7CF888185FFF4CF5C968C9139
:101DE0005C97FD01E80FF11DE35AFF4F20815C96DF
:101DF0008C915C9790E001968F7399275C968C93F9
:101E00005C975696ED91FC91579720835096ED91F3
:101E1000FC9151978081806480835B969C915B9755
:101E20005C968C915C979813C5CF5296ED91FC917E
:101E3000539780818F7D8083BDCF888186FFC5CFFA
:101E4000DF91CF910895FC01238D348D231730F459
:101E5000832F90E0821B9109019708958FE390E012
:101E6000821B9109830F911D0895FC01918D828D34
:101E7000981761F0828DDF01A80FB11D5D968C91DE
:101E8000928D9F5F9F73928F90E008958FEF9FEFE9
:101E90000895FC01918D828D981731F0828DE80FA5
:101EA000F11D858D90E008958FEF9FEF089580E0FC
:101EB00090E0892B79F08091DD062091DE0690E09C
:101EC000805C9F4F821B91098F739927892B11F09A
:101ED0000C94000008950E94BC361F920F920FB61A
:101EE0000F9211242F938F939F93EF93FF93E09181
:101EF000E006F0E0EF5DF84F20818091E00690E091
:101F000001968F7399278093E006E091DA06F091AD
:101F1000DB062083E091D406F091D50680818064B1
:101F200080839091DF068091E006981307C0E091CE
:101F3000D606F091D70680818F7D8083FF91EF9147
:101F40009F918F912F910F900FBE0F901F9018951A
:101F50001F920F920FB60F9211242F938F939F937E
:101F6000EF93FF93E091D406F091D5068081E09144
:101F7000DA06F091DB0682FD1BC020818091DD0630
:101F80008F5F8F739091DE06891741F0E091DD0637
:101F9000F0E0EC53F94F258F8093DD06FF91EF9130
:101FA0009F918F912F910F900FBE0F901F901895BA
:101FB0008081F4CF90E0FC01E051FB4F2491FC01C3
:101FC000E452FB4F3491FC01E853FB4F849188238A
:101FD000A1F0211118C0E82FF0E0EE0FFF1FE65529
:101FE000FB4FA591B4918FB7F894611107C09C91F4
:101FF000E32FE095E923EC938FBF0895EC91E32B59
:10200000EC938FBFFACF233029F160F02730E1F055
:102010002830A1F02430F9F6909180009F7D9093B4
:102020008000D9CF213031F02230A9F694B59F7DC0
:1020300094BDD1CF94B59F7794BDCDCF9091B00092
:102040009F7D9093B000C7CF9091B0009F77909301
:10205000B000C1CF909180009F7790938000BBCF5C
:102060000F931F938B019C019FB7F89440917C06BE
:1020700050917D0660917E0670917F0686B5A89B83
:1020800006C08F3F21F04F5F5F4F6F4F7F4F9FBF65
:10209000762F652F542F4427480F511D611D711D48
:1020A000440F551F661F771F440F551F661F771F6C
:1020B0000115110521053105C9F1FFB7F89480918B
:1020C0007C0690917D06A0917E06B0917F06E6B5D4
:1020D000A89B05C0EF3F19F00196A11DB11DFFBFE0
:1020E000BA2FA92F982F88278E0F911DA11DB11DE2
:1020F000880F991FAA1FBB1F880F991FAA1FBB1FFC
:10210000841B950BA60BB70B883E9340A105B10528
:10211000A0F2015011092109310948515C4F6F4F5C
:102120007F4F011511052105310539F61F910F91DA
:1021300008951F920F920FB60F9211242F933F9381
:102140008F939F93AF93BF93809178069091790678
:10215000A0917A06B0917B063091770623E0230F99
:102160002D3768F126E8230F0296A11DB11D20939B
:1021700077068093780690937906A0937A06B093B9
:102180007B0680917C0690917D06A0917E06B091A1
:102190007F060196A11DB11D80937C0690937D065C
:1021A000A0937E06B0937F06BF91AF919F918F91D0
:1021B0003F912F910F900FBE0F901F901895019691
:1021C000A11DB11DD4CFEF92FF920F931F93CF9318
:1021D000DF938111B0C0CFEFDFEF03ED1CE9109367
:1021E000AA030093A903109283061092820610920C
:1021F00081061092800660E070E08FEE90E00E9411
:10220000490767E770E08FEE90E00E9449078FEE84
:1022100090E090938306809382061092810610923C
:10222000800667E770E00E944907109283061092CB
:102230008206109281061092800667E770E080E0C7
:1022400090E00E944907D093AA03C093A90310927B
:1022500083061092820688E7E82EF12CF092810620
:10226000E09280066FEE70E080E090E00E94490707
:102270006FEE70E08FEE90E00E94490768E770E033
:102280008FEE90E00E9449078FEF9FEF9093AA0393
:102290008093A9031092830610928206F092810621
:1022A000E092800668E770E08FEE90E00E944907B8
:1022B000D093AA03C093A90384E090E0909383068F
:1022C000809382068EED90E0909381068093800645
:1022D000E6EAF4E08491882349F0C7EAD4E00E945A
:1022E0008406FE01849121968111F9CF1093AA03EF
:1022F0000093A90384E090E0909383068093820684
:1023000086E690E09093810680938006E2EAF4E00E
:102310008491882349F0C3EAD4E00E948406FE0138
:10232000849121968111F9CFDF91CF911F910F9167
:10233000FF90EF900895C3EDDCE9813009F04DCFB7
:102340000FEF1FEF4CCF90917007E0916807963028
:1023500009F489C031E03E0F30936807F0E0EF598F
:10236000F84F2181363009F47BC09F5F909370074E
:1023700030E0F901EF59F84F818788310CF088512E
:10238000880F990B8C5F9A4FFC01A591B491220F95
:10239000331F43E1429FF001439FF00D1124E251AE
:1023A000FC4F4085411150C0FD01F595E79543E193
:1023B000429FD001439FB00D1124A251BC4F1E96E5
:1023C000FC93EE931D971C961C921E921B9751E056
:1023D0001F965C931F9759EF50965C9350975296B7
:1023E0001C92529711961C92119712965C9112971B
:1023F00051965C93FC01A591B4912F5F3F4F429F92
:10240000F001439FF00D1124E251FC4F80858111B2
:1024100021C0AD015595479583E1829FF001839FCF
:10242000F00D1124E251FC4F568745871486138620
:1024300081E0878789EF808B128A11828281818B6C
:10244000660F687F678308954A9FF0014B9FF00DE8
:102450001124ADCF8A9FA0018B9F500D1124DCCF9A
:102460001092680782CFF0E0EF59F84F2181E09198
:10247000690730916A078317E9F030916B0783177A
:1024800009F4A1C030916C07831709F465C030913D
:102490006D07831709F47CC030916E07831709F428
:1024A00040C030916F07831701F1E0936907909363
:1024B00070075ECF94E09093FD033091F403309366
:1024C000FF039093100490910704909312041092CC
:1024D0006A0791E09E0FF0E0EF59F84F11829630B5
:1024E00009F48CC0E92F95E0C8CF34E03093BB04E9
:1024F0004091B2044093BD043093CE043091C504A2
:102500003093D00410926F0731E03E0FF0E0EF59A6
:10251000F84F45E04183363009F474C09150E32F01
:10252000C4CF34E03093950440918C0440939704D9
:102530003093A80440919F044093AA0410926E0720
:1025400041E04E0FF0E0EF59F84F3183463009F487
:102550005DC09150E42FA5CF34E030934904409101
:10256000400440934B0430935C0430915304309307
:102570005E0410926C0731E03E0FF0E0EF59F84F27
:1025800042E04183363009F43FC09150E32F7FCFC2
:1025900034E030936F0440916604409371043093AB
:1025A0008204309179043093840410926D0731E0F5
:1025B0003E0FF0E0EF59F84F43E04183363041F1F0
:1025C0009150E32F69CF34E03093230440911A04F3
:1025D000409325043093360430912D043093380411
:1025E00010926B0731E03E0FF0E0EF59F84F41E0F9
:1025F0004183363029F09150E32F44CF90E072CFE1
:1026000030E0F9CF30E08ACF30E0BFCF40E0A1CF5B
:1026100030E0D6CFE4EFF4E09491E0EEF4E0849182
:10262000ECECF4E0E491EE2389F0911112C0F0E0BB
:10263000EE0FFF1FE254FB4FA591B491EC91E823FC
:1026400081E090E009F0089580E0089580E090E056
:102650000895933029F160F09730E1F09830A1F0BF
:10266000943029F7909180009F7D90938000DFCF78
:10267000913031F09230D9F694B59F7D94BDD7CF8B
:1026800094B59F7794BDD3CF9091B0009F7D9093E8
:10269000B000CDCF9091B0009F779093B000C7CF9E
:1026A000909180009F7790938000C1CF90E0FC01D3
:1026B000E452FB4F2491FC01E853FB4F84918823A3
:1026C00099F090E0880F991FFC01EC54FB4FA59105
:1026D000B491FC01E655FB4F859194918FB7F89426
:1026E000EC91E22BEC938FBF08952F923F924F9283
:1026F0005F926F927F928F929F92AF92BF92CF9292
:10270000DF92EF92FF920F931F93CF93DF9381118C
:10271000D3C1D7E88D2E912C1EEE212E13E0312E41
:102720002FE130E03093AA032093A90320E1829F98
:1027300070011124F701EC57F94F82819381F70161
:10274000EC55F94F22813381309383062093820622
:1027500090938106809380064080518033E0431639
:10276000510424F1C70104969C012C55394F59019D
:10277000FC01EC57F94F6F01C2E0D0E0F501619028
:1027800071905F01F601019111916F01B801C301D0
:102790000E94490770928306609282061093810618
:1027A000009380062196C415D50541F78FEF9FEF62
:1027B0009093AA038093A903F101B780CB2DD0E0B9
:1027C0009281992309F492C1913009F408C29230A0
:1027D00009F408C2933009F40EC2943009F40EC211
:1027E000953009F414C2973009F414C29A3009F4F0
:1027F00088C29D3009F48EC2943109F497C29D318C
:1028000009F49AC29B3209F4A0C2903409F4A6C21A
:10281000963509F4AFC2903809F4BCC29F3F09F461
:1028200059C1A1E5CA2ED12C01E010E0D595C7957C
:10283000D595C795C80DD91D80E590E09093830686
:10284000809382069092810680928006D701AC55D3
:10285000B94F13969C938E931297F701EC57F94F4B
:10286000938282821596DC92CE921497D583C4838C
:10287000BE01C6010E944907D0928306C09282061B
:10288000D0938106C0938006F101848193819923BE
:1028900009F42FC1913009F49FC1923009F4A5C108
:1028A000933009F4A5C1943009F4ABC1953009F413
:1028B000ABC1973009F4B1C19A3009F425C29D30FB
:1028C00009F425C2943109F42BC29D3109F437C2B1
:1028D0009B3209F437C2903409F43DC2963509F4AD
:1028E00043C2903809F450C29F3F09F456C221E018
:1028F00030E0B89EC00111246CE770E00E948E3673
:1029000077FDE2C07595679575956795E401C60FEB
:10291000D71FC20ED31EF701EC55F94FD782C682DE
:10292000F701EC57F94FD783C683BE01C6010E9459
:102930004907D0928306C0928206D0938106C09345
:102940008006F10184819581992309F469C1913050
:1029500009F4E3C1923009F4E6C1933009F4E9C106
:10296000943009F4F5C1953009F4FBC1973009F4AE
:10297000FEC19A3009F40BC29D3009F411C29431A2
:1029800009F414C29D3109F41AC29B3209F41AC227
:10299000903409F41DC2963509F423C2903809F425
:1029A00026C29F3F09F426C220E030E0889FC00184
:1029B00011246CE770E00E948E3677FD88C0759513
:1029C000679575956795E401C60FD71FC20ED31E94
:1029D000F701EC55F94FD186C086F701EC57F94F56
:1029E000D187C087BE01C6010E944907D0928306E5
:1029F000C0928206D0938106C0938006F101968131
:102A0000992309F4BAC1913009F4D3C1923009F481
:102A1000CAC1933009F4D0C1943009F4D6C19530BD
:102A200009F4D9C1973009F4D9C19A3009F4DCC14D
:102A30009D3009F4E2C1943109F4E2C19D3109F4F9
:102A4000E2C19B3209F4E2C1903409F4E2C1963547
:102A500009F4E2C1903809F4F1C19F3F09F4F1C1D2
:102A600041E050E0C601840F951FF701EC55F94F86
:102A700093878287F701EC57F94F93868286B401DA
:102A80000E94490786E090E0F701EC55F94F9183E9
:102A90008083DF91CF911F910F91FF90EF90DF9096
:102AA000CF90BF90AF909F908F907F906F905F90EE
:102AB0004F903F902F900895BFE08B2E912CC1E056
:102AC0002C2EC4E03C2E2CCE6D5F7F4F1BCF6D5F54
:102AD0007F4F75CF8FE090E0FC01E555FC4F008102
:102AE00010E06801F0E5CF0ED11CA0CE80E090E0B0
:102AF000F3CF20E030E0F901E555FC4F208130E0D4
:102B00002F3F310509F0F5CEF101C781D0E0D59511
:102B1000C795D595C795C80DD91D00561F4FF7010C
:102B2000EC55F94F17830683F701EC57F94FD7831C
:102B3000C683BE01C8010E94490710938306009313
:102B40008206D0938106C0938006F1019681992375
:102B500009F465C1913009F46EC1923009F474C171
:102B6000933009F474C1943009F474C1953009F4B8
:102B700074C1973009F474C19A3009F474C19D305E
:102B800009F474C1943109F48AC19D3109F484C1F6
:102B90009B3209F47EC1903409F496C1963509F44C
:102BA00090C1903809F48AC19F3F09F496C124E08E
:102BB00030E0C801820F931FF701EC55F94F918760
:102BC0008087F701EC57F94F91868086B4010E9407
:102BD000490785E090E058CF21E030E08CCF81E0DC
:102BE00090E07ACF82E090E077CF22E030E083CFB0
:102BF00023E030E080CF83E090E06ECF84E090E08F
:102C00006BCF24E030E077CF25E030E074CF85E073
:102C100090E062CF86E090E05FCF26E030E06BCFBF
:102C200020E030E0F901E555FC4F208130E02F3FF6
:102C3000310509F060C0F1019781899FC00111241D
:102C40006CE770E00E948E3677FD58C075956795E9
:102C500075956795E401C60FD71FF2E3CF0ED11C1F
:102C6000F701EC55F94FD186C086F701EC57F94FC3
:102C7000D187C087BE01C6010E944907D092830652
:102C8000C0928206D0938106C0938006F10196819E
:102C9000992309F4EEC0913009F4F5C0923009F49B
:102CA000F5C0933009F401C1943009F4FBC09530AC
:102CB00009F401C1973009F4FBC09A3009F407C147
:102CC0009D3009F407C1943109F40DC19D3109F417
:102CD00007C19B3209F40AC1903409F40DC196353D
:102CE00009F410C1903809F40AC19F3F09F401C1E9
:102CF00042E050E0B7CE3595279558CE6D5F7F4FB7
:102D0000A5CF87E090E0E8CE27E030E0F4CE28E0E1
:102D100030E0F1CE88E090E0DFCE21E030E082CFFD
:102D200029E030E0E8CE22E030E07CCF89E090E09E
:102D3000D3CE23E030E076CF8AE090E0CDCE2AE01B
:102D400030E0D9CE2BE030E0D6CE8BE090E0C4CEA0
:102D500024E030E067CF2CE030E0CDCE8CE090E096
:102D6000BBCE25E030E05ECF2DE030E0C4CE26E0E3
:102D700030E058CF8DE090E0AFCEE0E0F0E0E555F8
:102D8000FC4F408150E06ECE2EE030E0B4CE27E024
:102D900030E048CF8EE090E09FCE2FE030E0ABCE29
:102DA00028E030E03FCFE2E0F0E0E9CF29E030E09A
:102DB00039CFE1E0F0E0E3CFE3E0F0E0E0CF2AE07C
:102DC00030E030CF2BE030E02DCFE4E0F0E0D7CFA3
:102DD0002CE030E027CFE5E0F0E0D1CFE6E0F0E016
:102DE000CECF2DE030E01ECFE7E0F0E0C8CF2EE000
:102DF00030E018CF2FE030E015CFE8E0F0E0BFCFB3
:102E0000E9E0F0E0BCCFEAE0F0E0B9CFEBE0F0E0E1
:102E1000B6CFECE0F0E0B3CFEDE0F0E0B0CF80E093
:102E200090E0FC01E555FC4F208130E0220F331F7C
:102E3000220F331FBECE81E090E0F3CFEEE0F0E052
:102E40009ECFEFE0F0E09BCF82E090E0EACF83E01E
:102E500090E0E7CF84E090E0E4CF85E090E0E1CF40
:102E600086E090E0DECF87E090E0DBCF88E090E086
:102E7000D8CF80E090E0FC01E555FC4F408150E068
:102E8000440F551FEFCD81E090E0F5CF82E090E058
:102E9000F2CF8BE090E0C5CF8AE090E0C2CF89E02E
:102EA00090E0BFCF84E090E0E6CF83E090E0E3CF16
:102EB00086E090E0E0CF85E090E0DDCF8EE090E02E
:102EC000B0CF8DE090E0ADCF8CE090E0AACF87E06E
:102ED00090E0D1CF88E090E0CECF8FE090E0A1CF1E
:102EE0008AE090E0C8CF89E090E0C5CF8BE090E029
:102EF000C2CF8FE090E0BFCF8CE090E0BCCF8EE0FF
:102F000090E0B9CF8DE090E0B6CFAF92BF92CF9274
:102F1000DF92EF92FF920F931F93CF93DF938FE196
:102F200090E09093AA038093A903809196069091D4
:102F300097062091B6063091B7063093830620930A
:102F4000820690938106809380068091B4069091CA
:102F5000B506039734F1C8EBAC2EC6E0BC2ED8E919
:102F6000CD2ED6E0DD2EC2E0D0E0F501E190F1906B
:102F70005F01F601019111916F01B801C7010E9433
:102F80004907F0928306E09282061093810600932F
:102F9000800621968091B4069091B506C817D9078E
:102FA00024F38FEF9FEF9093AA038093A903D0900F
:102FB0000804CD2DD0E090910304992309F47FC13A
:102FC000913009F4F3C1923009F4F3C1933009F45C
:102FD000F9C1943009F4F9C1953009F4FFC1973073
:102FE00009F4FFC19A3009F46FC29D3009F475C22B
:102FF000943109F47EC29D3109F481C29B3209F4F7
:1030000087C2903409F48DC2963509F496C290387F
:1030100009F4A3C29F3F09F446C111E5E12EF12C4A
:1030200001E010E0D595C795D595C7952F9620E579
:1030300030E030938306209382068FE090E09093F7
:103040008106809380063093B7062093B60690934E
:10305000970680939606F092B906E092B806D09350
:103060009906C0939806BE01C7010E944907F092D5
:103070008306E0928206D0938106C09380068091F9
:10308000050490910404992309F41CC1913009F4BA
:103090008AC1923009F490C1933009F490C1943000
:1030A00009F496C1953009F496C1973009F49CC192
:1030B0009A3009F40CC29D3009F40CC2943109F421
:1030C00012C29D3109F41EC29B3209F41EC2903413
:1030D00009F424C2963509F42AC2903809F437C29B
:1030E0009F3F09F43DC2C1E0D0E0D89EC001112449
:1030F0006CE770E00E948E3677FDCFC075956795BE
:10310000759567958B01015F1F4FCE0DDF1DD09325
:10311000BB06C093BA0610939B0600939A06B801AB
:10312000CE010E944907D0938306C0938206109374
:1031300081060093800680910504909106049923EE
:1031400009F455C1913009F4CBC1923009F4CEC1D4
:10315000933009F4D1C1943009F4DDC1953009F4FC
:10316000E3C1973009F4E6C19A3009F4F3C19D3008
:1031700009F4F9C1943109F4FCC19D3109F402C28A
:103180009B3209F402C2903409F405C2963509F461
:103190000BC2903809F40EC29F3F09F40EC220E022
:1031A00030E0889FC00111246CE770E00E948E36E9
:1031B00077FD76C075956795759567958B01015F6D
:1031C0001F4FC20FD31FD093BD06C093BC061093F0
:1031D0009D0600939C06B801CE010E944907D0933A
:1031E0008306C09382061093810600938006909117
:1031F0000704992309F4A4C1913009F4BDC19230A8
:1032000009F4B4C1933009F4BAC1943009F4C0C1CF
:10321000953009F4C3C1973009F4C3C19A3009F459
:10322000C6C19D3009F4CCC1943109F4CCC19D31A3
:1032300009F4CCC19B3209F4CCC1903409F4CCC15F
:10324000963509F4CCC1903809F4DBC19F3F09F4ED
:10325000DBC181E090E0C80FD91FD093BF06C093B7
:10326000BE068FE090E090939F0680939E066FE0ED
:1032700070E0CE010E94490786E090E09093B50689
:103280008093B406DF91CF911F910F91FF90EF9043
:10329000DF90CF90BF90AF9008956D5F7F4F2ECF9E
:1032A0006D5F7F4F87CF8FE090E0FC01E555FC4FCD
:1032B000008110E07801F0E5EF0EF11CB3CE80E064
:1032C00090E0F3CF20E030E0F901E555FC4FC081FC
:1032D000D0E0CF3FD10509F008CFC0910804D0E07D
:1032E000D595C795D595C7952F9600561F4F109326
:1032F000BB060093BA06D0939B06C0939A06BE0104
:10330000C8010E9449071093830600938206D09358
:103310008106C093800690910704992309F462C145
:10332000913009F46BC1923009F471C1933009F402
:1033300071C1943009F471C1953009F471C19730AD
:1033400009F471C19A3009F471C19D3009F471C159
:10335000943109F487C19D3109F481C19B3209F48C
:103360007BC1903409F493C1963509F48DC190382E
:1033700009F487C19F3F09F493C184E090E0080FEE
:10338000191F1093BD060093BC068FE090E0909348
:103390009D0680939C066FE070E0C8010E9449077B
:1033A00085E090E06BCF21E030E08ECF81E090E0CF
:1033B0007CCF82E090E079CF22E030E085CF23E03F
:1033C00030E082CF83E090E070CF84E090E06DCF7A
:1033D00024E030E079CF25E030E076CF85E090E062
:1033E00064CF86E090E061CF26E030E06DCF20E052
:1033F00030E0F901E555FC4F208130E02F3F3105E9
:1034000009F05CC090910804899FC00111246CE709
:1034100070E00E948E3677FD54C07595679575955E
:1034200067958B01015F1F4FE296D093BD06C09355
:10343000BC0610939D0600939C06B801CE010E9425
:103440004907D0938306C0938206109381060093A8
:10345000800680910704882309F4EEC0813009F4C6
:10346000F5C0823009F4F5C0833009F401C184301D
:1034700009F4FBC0853009F401C1873009F4FBC0B1
:103480008A3009F407C18D3009F407C1843109F489
:103490000DC18D3109F407C18B3209F40AC18034A2
:1034A00009F40DC1863509F410C1803809F40AC148
:1034B0008F3F09F401C182E090E0CDCE359527958C
:1034C00070CE6D5F7F4FA9CF87E090E0EECE27E012
:1034D00030E0FACE28E030E0F7CE88E090E0E5CEAC
:1034E00021E030E086CF29E030E0EECE22E030E08F
:1034F00080CF89E090E0D9CE23E030E07ACF8AE037
:1035000090E0D3CE2AE030E0DFCE2BE030E0DCCE1E
:103510008BE090E0CACE24E030E06BCF2CE030E0CE
:10352000D3CE8CE090E0C1CE25E030E062CF2DE03C
:1035300030E0CACE26E030E05CCF8DE090E0B5CE42
:10354000E0E0F0E0E555FC4F808190E084CE2EE095
:1035500030E0BACE27E030E04CCF8EE090E0A5CE50
:103560002FE030E0B1CE28E030E043CFE2E0F0E001
:10357000E9CF29E030E03DCFE1E0F0E0E3CFE3E068
:10358000F0E0E0CF2AE030E034CF2BE030E031CF84
:10359000E4E0F0E0D7CF2CE030E02BCFE5E0F0E046
:1035A000D1CFE6E0F0E0CECF2DE030E022CFE7E073
:1035B000F0E0C8CF2EE030E01CCF2FE030E019CF94
:1035C000E8E0F0E0BFCFE9E0F0E0BCCFEAE0F0E017
:1035D000B9CFEBE0F0E0B6CFECE0F0E0B3CFEDE058
:1035E000F0E0B0CF80E090E0FC01E555FC4F808139
:1035F00090E0880F991F880F991FC1CE81E090E05D
:10360000F3CFEEE0F0E09ECFEFE0F0E09BCF82E082
:1036100090E0EACF83E090E0E7CF84E090E0E4CF71
:1036200085E090E0E1CF86E090E0DECF87E090E0BB
:10363000DBCF88E090E0D8CF80E090E0FC01E5555A
:10364000FC4F808190E0880F991F05CE81E090E0CB
:10365000F5CF82E090E0F2CF8BE090E0C5CF8AE03A
:1036600090E0C2CF89E090E0BFCF84E090E0E6CF69
:1036700083E090E0E3CF86E090E0E0CF85E090E06B
:10368000DDCF8EE090E0B0CF8DE090E0ADCF8CE06C
:1036900090E0AACF87E090E0D1CF88E090E0CECF55
:1036A0008FE090E0A1CF8AE090E0C8CF89E090E081
:1036B000C5CF8BE090E0C2CF8FE090E0BFCF8CE031
:1036C00090E0BCCF8EE090E0B9CF8DE090E0B6CF37
:1036D000AF92BF92CF92DF92EF92FF920F931F9320
:1036E000CF93DF938FE190E09093AA038093A90397
:1036F00080918606909187062091A6063091A706B4
:1037000030938306209382069093810680938006EF
:103710008091A4069091A506039734F1C8EAAC2ED7
:10372000C6E0BC2ED8E8CD2ED6E0DD2EC2E0D0E03B
:10373000F501E190F1905F01F601019111916F01A6
:10374000B801C7010E944907F0928306E092820601
:10375000109381060093800621968091A406909193
:10376000A506C817D90724F38FEF9FEF9093AA03FC
:103770008093A903D090F503CD2DD0E09091F00374
:10378000992309F480C1913009F4F5C1923009F40C
:10379000F5C1933009F4FBC1943009F4FBC19530B5
:1037A00009F401C2973009F401C29A3009F471C2D8
:1037B0009D3009F477C2943109F480C29D3109F437
:1037C00083C29B3209F489C2903409F48FC29635C2
:1037D00009F498C2903809F4A5C29F3F09F447C183
:1037E00011E5E12EF12C01E010E0D595C795D595B6
:1037F000C795C957DF4F20E530E03093830620930B
:10380000820687E890E0909381068093800630934B
:10381000A7062093A6069093870680938606F092CB
:10382000A906E092A806D0938906C0938806BE0137
:10383000C7010E944907F0928306E0928206D09366
:103840008106C09380068091F2039091F103992341
:1038500009F41CC1913009F48BC1923009F491C173
:10386000933009F491C1943009F497C1953009F46B
:1038700097C1973009F49DC19A3009F40DC29D306B
:1038800009F40DC2943109F413C29D3109F41FC229
:103890009B3209F41FC2903409F425C2963509F40D
:1038A0002BC2903809F438C29F3F09F43EC2C1E0F0
:1038B000D0E0D89EC00111246CE770E00E948E36E3
:1038C00077FDCFC075956795759567958B010957FD
:1038D0001F4FCE0DDF1DD093AB06C093AA061093E9
:1038E0008B0600938A06B801CE010E944907D09347
:1038F0008306C09382061093810600938006809110
:10390000F2039091F303992309F456C1913009F41D
:10391000CCC1923009F4CFC1933009F4D2C19430B4
:1039200009F4DEC1953009F4E4C1973009F4E7C128
:103930009A3009F4F4C19D3009F4FAC1943109F4C4
:10394000FDC19D3109F403C29B3209F403C29034D6
:1039500009F406C2963509F40CC2903809F40FC276
:103960009F3F09F40FC220E030E0889FC00111247E
:103970006CE770E00E948E3677FD76C0759567958E
:10398000759567958B0109571F4FC20FD31FD093B1
:10399000AD06C093AC0610938D0600938C06B8015B
:1039A000CE010E944907D0938306C09382061093EC
:1039B0008106009380069091F403992309F4A5C130
:1039C000913009F4BEC1923009F4B5C1933009F4C5
:1039D000BBC1943009F4C1C1953009F4C4C197301A
:1039E00009F4C4C19A3009F4C7C19D3009F4CDC1AE
:1039F000943109F4CDC19D3109F4CDC19B3209F454
:103A0000CDC1903409F4CDC1963509F4CDC19038BB
:103A100009F4DCC19F3F09F4DCC181E090E0C80FEC
:103A2000D91FD093AF06C093AE0687E890E090937D
:103A30008F0680938E0667E870E0CE010E944907EA
:103A400086E090E09093A5068093A406DF91CF9145
:103A50001F910F91FF90EF90DF90CF90BF90AF90AC
:103A600008956D5F7F4F2ECF6D5F7F4F87CF8FE0C3
:103A700090E0FC01E555FC4F008110E07801F0E595
:103A8000EF0EF11CB2CE80E090E0F3CF20E030E00A
:103A9000F901E555FC4FC081D0E0CF3FD10509F0D9
:103AA00008CFC091F503D0E0D595C795D595C795BA
:103AB000C957DF4F00561F4F1093AB060093AA065D
:103AC000D0938B06C0938A06BE01C8010E944907A5
:103AD0001093830600938206D0938106C0938006DC
:103AE0009091F403992309F462C1913009F46BC1F8
:103AF000923009F471C1933009F471C1943009F422
:103B000071C1953009F471C1973009F471C19A30CF
:103B100009F471C19D3009F471C1943109F487C170
:103B20009D3109F481C19B3209F47BC1903409F4C1
:103B300093C1963509F48DC1903809F487C19F3F30
:103B400009F493C184E090E0080F191F1093AD06AB
:103B50000093AC0687E890E090938D0680938C06E6
:103B600067E870E0C8010E94490785E090E06ACFED
:103B700021E030E08DCF81E090E07BCF82E090E0EB
:103B800078CF22E030E084CF23E030E081CF83E0C3
:103B900090E06FCF84E090E06CCF24E030E078CF0D
:103BA00025E030E075CF85E090E063CF86E090E0DF
:103BB00060CF26E030E06CCF20E030E0F901E55541
:103BC000FC4F208130E02F3F310509F05CC090911F
:103BD000F503899FC00111246CE770E00E948E36C6
:103BE00077FD54C075956795759567958B01095755
:103BF0001F4FE296D093AD06C093AC0610938D068E
:103C000000938C06B801CE010E944907D093830629
:103C1000C093820610938106009380068091F4037E
:103C2000882309F4EEC0813009F4F5C0823009F42C
:103C3000F5C0833009F401C1843009F4FBC085303C
:103C400009F401C1873009F4FBC08A3009F407C1C7
:103C50008D3009F407C1843109F40DC18D3109F4A7
:103C600007C18B3209F40AC1803409F40DC18635CD
:103C700009F410C1803809F40AC18F3F09F401C169
:103C800082E090E0CCCE359527956FCE6D5F7F4F6B
:103C9000A9CF87E090E0EDCE27E030E0F9CE28E034
:103CA00030E0F6CE88E090E0E4CE21E030E086CF50
:103CB00029E030E0EDCE22E030E080CF89E090E0F6
:103CC000D8CE23E030E07ACF8AE090E0D2CE2AE06E
:103CD00030E0DECE2BE030E0DBCE8BE090E0C9CEF2
:103CE00024E030E06BCF2CE030E0D2CE8CE090E0EE
:103CF000C0CE25E030E062CF2DE030E0C9CE26E036
:103D000030E05CCF8DE090E0B4CEE0E0F0E0E5554F
:103D1000FC4F808190E083CE2EE030E0B9CE27E0EA
:103D200030E04CCF8EE090E0A4CE2FE030E0B0CE7B
:103D300028E030E043CFE2E0F0E0E9CF29E030E0F6
:103D40003DCFE1E0F0E0E3CFE3E0F0E0E0CF2AE0D8
:103D500030E034CF2BE030E031CFE4E0F0E0D7CFFB
:103D60002CE030E02BCFE5E0F0E0D1CFE6E0F0E072
:103D7000CECF2DE030E022CFE7E0F0E0C8CF2EE05C
:103D800030E01CCF2FE030E019CFE8E0F0E0BFCF0B
:103D9000E9E0F0E0BCCFEAE0F0E0B9CFEBE0F0E042
:103DA000B6CFECE0F0E0B3CFEDE0F0E0B0CF80E0F4
:103DB00090E0FC01E555FC4F808190E0880F991F51
:103DC000880F991FC1CE81E090E0F3CFEEE0F0E0E4
:103DD0009ECFEFE0F0E09BCF82E090E0EACF83E07F
:103DE00090E0E7CF84E090E0E4CF85E090E0E1CFA1
:103DF00086E090E0DECF87E090E0DBCF88E090E0E7
:103E0000D8CF80E090E0FC01E555FC4F808190E048
:103E1000880F991F04CE81E090E0F5CF82E090E01A
:103E2000F2CF8BE090E0C5CF8AE090E0C2CF89E08E
:103E300090E0BFCF84E090E0E6CF83E090E0E3CF76
:103E400086E090E0E0CF85E090E0DDCF8EE090E08E
:103E5000B0CF8DE090E0ADCF8CE090E0AACF87E0CE
:103E600090E0D1CF88E090E0CECF8FE090E0A1CF7E
:103E70008AE090E0C8CF89E090E0C5CF8BE090E089
:103E8000C2CF8FE090E0BFCF8CE090E0BCCF8EE05F
:103E900090E0B9CF8DE090E0B6CFCF92DF92FF9265
:103EA0000F931F93CF93DF93C0900A04D0900B041D
:103EB0001092AA031092A90381E090E090938306E8
:103EC0008093820689E290E0909381068093800639
:103ED00028988AE28EBD00000DB407FEFDCF8EB596
:103EE000289A1EBC00000DB407FEFDCF8EB589E2F6
:103EF0008EBD00000DB407FEFDCF8EB51EBC0000C8
:103F00000DB407FEFDCF8EB589E58EBD00000DB462
:103F100007FEFDCF8EB580918206909183069C01AD
:103F2000295B3F4F28984BE24EBD00000DB407FEC1
:103F3000FDCF4EB5289A9EBD00000DB407FEFDCF03
:103F40009EB58EBD00000DB407FEFDCF8EB53EBD03
:103F500000000DB407FEFDCF8EB52EBD00000DB4E0
:103F600007FEFDCF8EB528988CE28EBD00000DB403
:103F700007FEFDCF8EB5289A80E99BE13091AA0318
:103F80003EBD00000DB407FEFDCF2EB52091A90364
:103F90002EBD00000DB407FEFDCF2EB5019781F7B1
:103FA00080EE9FEF9093AA038093A903C3E0D0E033
:103FB00066E470E0CE010E942B082496CF33D10531
:103FC000B9F780EE97E09093AA038093A903FC2CA5
:103FD000E601C05CDF4F86010CC0759567956A5B92
:103FE0007F4F869590E00F960E942B080C171D07B7
:103FF00079F0802F8F19F80161918F01062E000C46
:10400000770B7595679577FFE8CF6F5F7F4FE5CFAB
:10401000DF91CF911F910F91FF90DF90CF90089586
:10402000CF92DF92FF920F931F93CF93DF93C090B5
:10403000F703D090F8031092AA031092A90381E02D
:1040400090E0909383068093820681EA90E09093BB
:1040500081068093800628988AE28EBD00000DB408
:1040600007FEFDCF8EB5289A1EBC00000DB407FEDA
:10407000FDCF8EB581EA8EBD00000DB407FEFDCFE9
:104080008EB51EBC00000DB407FEFDCF8EB581EDD0
:104090008EBD00000DB407FEFDCF8EB58091820667
:1040A000909183069C01295B3F4F28984BE24EBDBF
:1040B00000000DB407FEFDCF4EB5289A9EBD00004E
:1040C0000DB407FEFDCF9EB58EBD00000DB407FEFA
:1040D000FDCF8EB53EBD00000DB407FEFDCF8EB501
:1040E0002EBD00000DB407FEFDCF8EB528988CE2E2
:1040F0008EBD00000DB407FEFDCF8EB5289A80E975
:104100009BE13091AA033EBD00000DB407FEFDCF38
:104110002EB52091A9032EBD00000DB407FEFDCFE2
:104120002EB5019781F780EE9FEF9093AA038093BD
:10413000A903C3E0D0E06EEB70E0CE010E942B0833
:104140002496CF33D105B9F780EE97E09093AA0378
:104150008093A903FC2CE601C05CDF4F86010CC0F4
:104160007595679562547F4F869590E00F960E94F3
:104170002B080C171D0779F0802F8F19F80161911A
:104180008F01062E000C770B7595679577FFE8CFAA
:104190006F5F7F4FE5CFDF91CF911F910F91FF9020
:1041A000DF90CF900895CF93DF93CDB7DEB72E97F2
:1041B0000FB6F894DEBF0FBECDBF789484B5826091
:1041C00084BD84B5816084BD85B5826085BD85B5BB
:1041D000816085BD80916E00816080936E00109239
:1041E00081008091810082608093810080918100B4
:1041F0008160809381008091800081608093800045
:104200008091B10084608093B1008091B0008160A2
:104210008093B00080917A00846080937A008091CE
:104220007A00826080937A0080917A008160809326
:104230007A0080917A00806880937A001092C100A1
:1042400080E291E0E6E5F5E0DF019C011D9221505E
:104250003040E1F780E8E6EDF4E0DF011D928A9559
:10426000E9F78BE390E090937B0580937A058CE3EC
:1042700090E090938B0580938A058DE390E0909376
:104280008D0580938C058EE390E090939B05809341
:104290009A058FE390E090939D0580939C0580E4C0
:1042A00090E0909399058093980581E490E0909335
:1042B000AB058093AA0582E490E09093BF058093BC
:1042C000BE0583E490E09093BB058093BA0584E437
:1042D00090E09093BD058093BC0585E490E09093B9
:1042E000B9058093B80586E490E09093CD0580935E
:1042F000CC0587E490E09093CB058093CA0588E4D1
:1043000090E09093D9058093D80589E490E090934C
:10431000ED058093EC058AE490E09093E9058093A5
:10432000E8058BE490E09093EF058093EE058CE434
:1043300090E09093EB058093EA058DE490E09093F4
:10434000F9058093F8058EE490E090931106809330
:1043500010068FE490E0909309068093080680E5AC
:1043600090E090930B0680930A0681E590E090938D
:104370002D0680932C0682E590E090934106809371
:10438000400683E590E090933B0680933A0684E5EF
:1043900090E090933F0680933E0680ED9FEF9093D0
:1043A0008105809380058FEC9FEF90939305809318
:1043B00092058EEC9FEF90939105809390058DEC84
:1043C0009FEF9093A3058093A2058CEC9FEF9093B1
:1043D0009F0580939E058BEC9FEF9093B105809392
:1043E000B0058AEC9FEF9093B3058093B20589ECFA
:1043F0009FEF9093AF058093AE0588EC9FEF90936D
:10440000C3058093C20587EC9FEF9093C10580930D
:10441000C00586EC9FEF9093D1058093D00585EC85
:104420009FEF9093CF058093CE0584EC9FEF909300
:10443000DD058093DC0583EC9FEF9093E30580938B
:10444000E20582EC9FEF9093DF058093DE0581EC1F
:104450009FEF9093E1058093E00580EC9FEF9093B0
:10446000F1058093F0058FEB9FEF9093FF0580930C
:10447000FE058EEB9FEF90930106809300068DEB77
:104480009FEF90930D0680930C0680E890E0909348
:104490004306809342068DE090E090933906809326
:1044A00038068EE090E090932906809328068FE0EE
:1044B00090E090934B0680934A0680E190E09093C1
:1044C00037068093360681E190E090932F06809323
:1044D0002E0682E190E0909351068093500683E18E
:1044E00090E0909359058093580584E190E0909373
:1044F00069058093680585E190E090934706809375
:10450000460686E190E0909365058093640587E117
:1045100090E0909345068093440688E190E0909364
:1045200053068093520681E090E09093610580935A
:10453000600582E090E0909363058093620583E0DC
:1045400090E090935F0580935E0584E090E0909307
:104550006F0580936E0585E090E090935D058093F4
:104560005C0586E090E090936D0580936C0587E094
:1045700090E090935D0680935C0688E090E09093D5
:104580006B0580936A05E091D406F091D50682E030
:104590008083E091D006F091D1061082E091D2069E
:1045A000F091D3068FEC80831092DC06E091D80660
:1045B000F091D90686E38083E091D606F091D70684
:1045C000808180618083E091D606F091D70680815A
:1045D00088608083E091D606F091D706808180685C
:1045E0008083E091D606F091D70680818F7D80830D
:1045F0008091C20080648093C200ECEDF4E02491CD
:10460000E8ECF4E084918823C9F090E0880F991FCA
:10461000FC01EC54FB4F4591549186559B4FFC0196
:10462000A591B4913FB7F894FA019081822F8095BB
:10463000982390839C9189238C933FBFE0EEF4E014
:104640002491ECECF4E084918823C9F090E0880F89
:10465000991FFC01EC54FB4F4591549186559B4F9B
:10466000FC01A591B4913FB7F894FA019081822F93
:104670008095982390839C9189238C933FBF60E021
:1046800080E00E94DA0F60E084E00E94DA0F539A23
:104690001092B0001092B10083E38093B00021E04B
:1046A0002093B1001092800010928100109285003A
:1046B000109284008BE992E09093890080938800A7
:1046C0001092800089E08093810010926F008091A9
:1046D0006F00826080936F001092720710927107D2
:1046E0001092EE0306E50093F00384E08093F1035B
:1046F00094E59093F20312E01093F3031092F40305
:10470000F8EAF093F5038093F603A0E8B1E0B093E4
:10471000F803A093F703EBE2E093030474E17093D2
:1047200004049093050463E06093060480930704F7
:1047300030EE309308042093090440E451E0509394
:104740000B0440930A0410921404009316048093FF
:104750001704909318041093190410921A04F093FC
:104760001B0480931C04B0931E04A0931D04E093CB
:10477000290470932A0490932B0460932C04809353
:104780002D0430932E0420932F0450933104409332
:10479000300410923A0400933C0480933D049093BB
:1047A0003E0410933F0410924004F0934104809320
:1047B0004204B0934404A0934304E0934F047093E5
:1047C00050049093510460935204809353043093A7
:1047D0005404209355045093570440935604109268
:1047E00060040093620480936304909364041093C4
:1047F000650410926604F093670480936804B09394
:104800006A04A0936904E09375047093760490930E
:104810007704609378048093790430937A0420932A
:104820007B0450937D0440937C0410928604009393
:1048300088048093890490938A0410938B041092C7
:104840008C04F0938D0480938E04B0939004A09315
:104850008F04E0939B0470939C0490939D04609359
:104860009E0480939F043093A0042093A10450934E
:10487000A3044093A2041092AC040093AE0480936E
:10488000AF049093B0041093B1041092B204F0936B
:10489000B3048093B404B093B604A093B504E0933A
:1048A000C1047093C2049093C3046093C4048093C2
:1048B000C5043093C6042093C7045093C9044093A1
:1048C000C80464EF71E080E090E00E943010109224
:1048D0006F0088E00E9456138AE00E94561389E018
:1048E0000E94561361E08AE00E94DA0F61E088E0DE
:1048F0000E94DA0F60E089E00E94DA0F6CE271E05A
:1049000080E090E00E94301061E089E00E94DA0FC0
:104910006CE271E080E090E00E9430101FB7F894E4
:104920008091D204811126C0E2EDF4E08491E6EE9C
:10493000F4E09491E82FF0E0EE0FFF1FEC54FB4FF2
:10494000A591B4918C91982321F461E08AE00E94B2
:10495000DA0F8AE00E9456138CB580618CBD8CB54D
:1049600080648CBD8DE00E9456138BE00E9456132C
:104970008091D2048F5F8093D2041FBF8CB5837F58
:1049800088608CBD8CB58C7F8CBD8DB581608DBDF4
:1049900081E00E94400766E970E080E090E00E94BC
:1049A000301081E10E94400764EF71E080E090E008
:1049B0000E9430108AE30E94400785E50E94390773
:1049C0006AE070E080E090E00E94301086E30E9490
:1049D000400780E00E94390781E20E9440078AE296
:1049E0000E94400784E00E94390780E00E94390756
:1049F00080E00E94390780E00E94390780EF0E9422
:104A000039078BE20E94400784E00E94390780E06A
:104A10000E94390780E00E94390780E00E94390730
:104A200080EF0E94390786E30E94400780E60E94DB
:104A3000390783E10E9440076AE070E080E090E07F
:104A40000E9430100E94870889E20E9440076AE0B5
:104A500070E080E090E00E9430100E94290B80916D
:104A6000A7030E94E31080916F00826080936F0023
:104A700010927606789490E0F090A803392F8091F8
:104A8000DD062091DE0690E0805C9F4F821B91093D
:104A90008F739927892B99F39091DD068091DE061B
:104AA000981709F4F9C2E091DE06F0E0EC53F94FF3
:104AB000E58D8091DE068F5F8F738093DE06E03E8A
:104AC00009F4FFC0E03F09F46FC0F0E0EE0FFF1FF4
:104AD000EA5AFA4F808191818038910509F4F3C038
:104AE000009709F45FC0AC0197FD4BC2FA01EA528E
:104AF000FB4F2081211156C08831910509F446C22F
:104B0000F1E0FF1609F478C2FF1608F454C222E05F
:104B1000F21248C08130910509F471C382309105C9
:104B200009F058C390E080E0C92ED82E8601005CC1
:104B30001C4F7601F1E1EF0EF11CD8016D918D0152
:104B4000C6010E948036BFEFCB1ADB0AEC14FD04CD
:104B5000A1F79E2D8F2DE6E6EE16F10429F78FEFD3
:104B60009FEF9093AA038093A90384E190E0909330
:104B70008306809382068CE390E090938106809375
:104B80008006E5E4F2E08491882351F006E412E027
:104B90000E948406F80184910F5F1F4F8111F8CFA6
:104BA000F090A80330E06BCF8091DD062091DE0607
:104BB00090E0805C9F4F821B91098F739927892B0E
:104BC00099F39091DD068091DE06981709F412C5DD
:104BD000E091DE06F0E0EC53F94F858D9091DE0612
:104BE0009F5F9F739093DE0690E0880F991FFC01F2
:104BF000EA5AFA4F80819181009709F440CFAC01C5
:104C000097FD4DC2FA01EA52FB4F2081213009F095
:104C100036CFAC01415051094830510508F495C3D5
:104C200097FD09C4FC01EA52FB4F10822091D40485
:104C30004091710750917207452B09F020CF820FE8
:104C400090916A07891709F40BC490916B07891733
:104C500009F42CC490916C07891709F44EC4909103
:104C60006D07891709F470C490916E07891709F4CC
:104C700092C490916F07891302CF84E08093BB04A4
:104C80009091B2049093BD048093CE048091C504AA
:104C90008093D00410926F07E091690781E08E0F36
:104CA00080936907F0E0EF59F84F95E091838630E3
:104CB00011F41092690780917007815080937007FA
:104CC000DECE31E0DCCEF1E0FF1508F46BCF809151
:104CD00076068F5F80937606863008F067C190E095
:104CE00021E1289FF001299FF00D1124E05CFC4F89
:104CF00010811770C084808863816F7107810F7184
:104D0000A181AF70B0E0A352BC4F7C90A281AF7084
:104D1000B0E0A352BC4F6C90A481AF70B0E0A3523E
:104D2000BC4F5C90A581AF70B0E0A352BC4F4C90DB
:104D300096818FE1382E391A330C330C330C73857E
:104D40007F7197859F719D83A185AF70B0E09D01B4
:104D500023523C4FD901BC91BC83A285AF70B0E017
:104D60009D0123523C4FD901BC91BB83A485AF70F8
:104D7000B0E09D0123523C4FD901BC91BA83A58577
:104D8000AF70B0E09D0123523C4FD901BC91B98373
:104D90009685891B282E220C220C220C862F8195A9
:104DA000880F880F880F84588E83872F8195880FEE
:104DB000880F880F84588F83E9E0F4E085E094E061
:104DC000A2EFB3E0D12C912CA6019401F987E887DA
:104DD0009B878A87BD87AC874DC080E090E0AC851B
:104DE000BD8516969C938E93159788859985069711
:104DF000AC81FC01A083888599850597AB81FC0176
:104E0000A0837F3009F4A4C0EF81AA85BB85EC9311
:104E1000888599850397EA81DC01EC9388859985DB
:104E20000297E981DC01EC93888599850197DC0183
:104E30002C928D81E885F98580832830310508F42E
:104E400065C080E090E0A885B98512969C938E930A
:104E500011979696B987A887EA85FB85B696FB8752
:104E6000EA878C859D8586969D878C87AD5EB4404C
:104E700009F472C0888599854B97FC011083888559
:104E800099854997DC017C92888599854897FC0132
:104E900060826F3009F458C08E81EC85FD85808377
:104EA000888599854697DC015C9288859985459728
:104EB000FC014082888599854497DC013C92888575
:104EC00099854397FC0100834830510508F085CF50
:104ED000C6018C5C9F4FFC010C94A23680EC92E0E2
:104EE0007ECF80E892E07BCF80E092E078CF80ECCC
:104EF00091E075CF80E891E072CF80E492E06FCFCF
:104F000080E491E06CCF80E093E069CFC401845CE1
:104F10009F4FFC010C94A23680EC92E094CF80E885
:104F200092E091CF80E092E08ECF80EC91E08BCF49
:104F300080E891E088CF80E492E085CF80E491E042
:104F400082CF80E093E07FCFAC85BD851C92A8CF57
:104F5000EA85FB8510825CCF10926F000E94290BBE
:104F60000E94681B0E9485170E9410200E944D1FFE
:104F700080916F00826080936F0030E0F090A80312
:104F80007ECD44275527481B590BB0CD81E08F0DAE
:104F90008093A8038330C8F11092A8030E94870869
:104FA0000E94290B30E0F090A80369CD109276069C
:104FB00080E090E095CEAC01415051094435510557
:104FC00008F472C097FF02C00C94423021E0FC014B
:104FD000EA52FB4F20832091D404409171075091F5
:104FE0007207452B09F0DECD68E7820F0E94A311FE
:104FF00030E0F090A80343CDFC013197E435F10592
:1050000008F7EC5BFF4F0C94A236882339F281300D
:1050100009F493C10E9487088FEF9FEF9093AA0332
:105020008093A90384E190E09093830680938206A5
:1050300086E990E09093810680938006E4E3F2E0B5
:105040008491882351F005E312E00E948406F80160
:1050500084910F5F1F4F8111F8CF84E190E090930E
:1050600083068093820684E690E090938106809385
:105070008006ECE2F2E08491882309F491CD0DE200
:1050800012E00E948406F80184910F5F1F4F811186
:10509000F8CFF090A80386CDEFEFF0E017CD4427CE
:1050A0005527481B590BAECDFA01E856FF4F0C941B
:1050B000A236313009F48ACF30E0E1CC8CE0809325
:1050C000D40430E0DCCC1092D40430E0D8CC109280
:1050D000D50430E0D4CC84EF8093D50430E0CFCC3D
:1050E0008CE08093D30430E0CACC1092D30430E03B
:1050F000C6CC84EF8093D30430E0C1CC80E58093AC
:10510000A6038DEE0E94040985E00E94040930E0A8
:10511000F090A803B4CC8CE38093A6038DEE0E949C
:10512000040981E00E94040930E0F090A803A7CCB4
:1051300088E28093A6038DEE0E94040980E00E941D
:10514000040930E0F090A8039ACCFC01EA52FB4F2E
:1051500021E02083CA01880F991F480F591FFA01C7
:10516000E45BFD4FE4918091D304EE2EE80EFA014A
:10517000E55BFD4F1491FA01E65BFD4F4491009110
:10518000A6032091710730917207232B09F00ACDF5
:10519000180F840F002309F405C7602F0E94A31184
:1051A0008091710790917207892B09F0F9CC602FDB
:1051B000812F0E94A3118091710790917207892B12
:1051C00009F0EECC602F8E2D0E94A31130E0F090FC
:1051D000A80355CC97FFFACE919581959109FC01D2
:1051E000EA52FB4F21E020832091D50440917107C2
:1051F00050917207452B09F4F7CE30E040CC00E027
:1052000010E0C8010E9478369801205C3C4F69018B
:10521000D9018C93C80101960E947836F6018183EA
:10522000C80102960E947836D60112968C93C80166
:1052300003960E947836F6018383C80104960E9483
:105240007836D60114968C93C80105960E9478365C
:10525000F6018583C80106960E947836D601169617
:105260008C93C80107960E947836F6018783C8019F
:1052700008960E947836D60118968C93C801099634
:105280000E947836F6018187C8010A960E94783616
:10529000D6011A968C93C8010B960E947836F601B7
:1052A0008387C8010C960E947836D6011C968C9391
:1052B000C8010D960E947836F6018587C8010E96C2
:1052C0000E947836D6011E968C93C8010F960E94D4
:1052D0007836F6018787C80140960E947836D60155
:1052E00050968C930F5E1F4F0636110509F089CF3B
:1052F0008FEF9FEF9093AA038093A90384E190E03E
:1053000090938306809382068CE390E090938106CD
:1053100080938006E0E4F2E08491882309F442CC93
:1053200001E412E00E948406F80184910F5F1F4F90
:105330008111F8CFF090A80335CC8091A7030E948B
:10534000E31030E0F090A8039ACBFC01EA52FB4F47
:105350001082CA01880F991F840F951FFC01E45B1E
:10536000FD4FB491A091D304FC01E55BFD4F149176
:10537000FC01E65BFD4F84914091710750917207EB
:10538000452B09F07CCB8A0F00916A07801711F436
:105390000C94373570916B07871711F40C94113505
:1053A00060916C07861711F40C94EB3450916D07E3
:1053B000851711F40C94C53440916E07841711F4CD
:1053C0000C94A03420916F07821711F40C947A3456
:1053D000912F9A0F901711F40C945534971711F4DC
:1053E0000C942F34961711F40C940934951711F47A
:1053F0000C94E333941711F40C94BE33921711F408
:105400000C9498338B2F8A0F801711F40C947433FB
:10541000871711F40C944F33861711F40C942A3328
:10542000851711F40C940533841711F40C94C332CE
:10543000821325CB22CC919581959109FC01EA52EA
:10544000FB4F10822091D504409171075091720753
:10545000452B09F014CB820F90916A078913F5CB85
:1054600094E09093FD032091F4032093FF03909325
:105470001004909107049093120410926A07E0912F
:10548000690791E09E0F90936907F0E0EF59F84F9C
:105490001182963011F40C94F23290917007915071
:1054A0009093700790916B078913D4CB94E09093FD
:1054B000230420911A04209325049093360490919C
:1054C0002D049093380410926B07E091690791E0E6
:1054D0009E0F90936907F0E0EF59F84F21E0218388
:1054E000963011F40C94EB32909170079150909398
:1054F000700790916C078913B2CB94E090934904A4
:105500002091400420934B0490935C0490915304A9
:1055100090935E0410926C07E091690791E09E0FF2
:1055200090936907F0E0EF59F84F22E0218396301D
:1055300011F40C94E732909170079150909370079A
:1055400090916D07891390CB94E090936F04209114
:10555000660420937104909382049091790490934F
:10556000840410926D07E091690791E09E0F90937B
:105570006907F0E0EF59F84F23E02183963011F4EA
:1055800010926907909170079150909370079091D5
:105590006E0789136ECB94E09093950420918C0450
:1055A000209397049093A80420919F042093AA0429
:1055B00010926E07E091690721E02E0F2093690792
:1055C000F0E0EF59F84F9183263011F410926907FB
:1055D000909170079150909370074BCB8091A703E7
:1055E0008F5F81708093A7030E94E31030E0F090FA
:1055F000A80345CA8FEF90E0F8CA8091A703909165
:105600007606682F660F660F660F6F5F70E0A92F32
:10561000B0E0FB0141E1949FE00DF11D1124E05C3D
:10562000FC4F408150E04150510908F4B8C440316A
:10563000510514F04FE050E0242F91E19A9FF001C2
:105640009B9FF00D11246E0F7F1FFB01E05CFC4F50
:105650002083FA01E352FC4F208193E1989FF001EF
:105660001124E251FC4F2283E2E0E80F9E9FF001FB
:105670001124E251FC4F2283E4E0E80F9E9FF001E9
:105680001124E251FC4F2283E6E0E80F9E9FF001D7
:105690001124E251FC4F2283E8E0E80F9E9FF001C5
:1056A0001124E251FC4F2283EAE0E80F9E9FF001B3
:1056B0001124E251FC4F22830E94751330E0F090D8
:1056C000A803DDC98091A70390917606482F440F67
:1056D000440F440F4F5F50E0692F70E0FA0131E151
:1056E000939FE00DF11D1124E05CFC4F208130E020
:1056F0002F5F3F4F2031310514F02FE030E091E172
:10570000969FF001979FF00D11244E0F5F1FFA0135
:10571000E05CFC4F2083F9019DCF4091A7032091CD
:105720007606842F880F880F880F895F90E0622F9C
:1057300070E0FC0131E1239FE00DF11D1124E05CDC
:10574000FC4F208130E02F5F3F4F2031310514F0B6
:105750002FE030E031E1369FF001379FF00D11244A
:105760008E0F9F1FFC01E05CFC4F208383E1849F30
:10577000F0011124E251FC4F2087E2E0E40F8E9FFC
:10578000F0011124E251FC4F2087E4E0E40F8E9FEA
:10579000F0011124E251FC4F2087E6E0E40F8E9FD8
:1057A000F0011124E251FC4F2087E8E0E40F8E9FC6
:1057B000F0011124E251FC4F2087EAE0E40F8E9FB4
:1057C000F0011124E251FC4F2087411111C7409193
:1057D000F60302E810E085E090E090938306809362
:1057E0008206109381060093800683ED9CE99093D6
:1057F000AA038093A903ECE3F2E08491882379F073
:105800007DE3E72E72E0F72E4E870E948406F701B3
:105810008491FFEFEF1AFF0A4E858111F5CF4A30D0
:1058200008F4FCC14A5081E328E230E0309383065B
:105830002093820610938106009380064E870E9473
:10584000840684E390E0909383068093820610930D
:105850008106009380064E8580E3840F0E948406B3
:1058600030E0F090A8030BC9313009F09BC91091CA
:10587000A70341E050E0612F809176060E94C603A5
:10588000812F0E947513812F0E94B90C30E0F09097
:10589000A803F5C8313009F085C91091A7034FEF6F
:1058A0005FEF612F809176060E94900D812F0E94FC
:1058B000751330E0F090A803E2C88091A70390919F
:1058C0007606682F660F660F660F6D5F70E0A92F72
:1058D000B0E0FB0131E1939FE00DF11D1124E05C8C
:1058E000FC4F408150E04150510908F47FC69A01B5
:1058F0004031510514F02FE030E0922F220F220F9B
:10590000220F31E13A9FF0013B9FF00D11246E0F01
:105910007F1FFB01E05CFC4F908393E1989FF001B7
:105920001124E251FC4F2483E2E0E80F9E9FF00136
:105930001124E251FC4F2483E4E0E80F9E9FF00124
:105940001124E251FC4F2483E6E0E80F9E9FF00112
:105950001124E251FC4F2483E8E0E80F9E9FF00100
:105960001124E251FC4F2483EAE0E80F9E9FF001EE
:105970001124E251FC4F24830E94751330E0F09013
:10598000A8037DC88091A70390917606682F660FC3
:10599000660F660F6B5F70E0A92FB0E0FB0131E18D
:1059A000939FE00DF11D1124E05CFC4F408150E01D
:1059B0004150510908F413C64031510514F04FE02D
:1059C00050E0242F91E19A9FF0019B9FF00D11244C
:1059D0006E0F7F1FFB01E05CFC4F2083FA01E35256
:1059E000FC4F208193E1989FF0011124E251FC4F7C
:1059F0002683E2E0E80F9E9FF0011124E251FC4F64
:105A00002683E4E0E80F9E9FF0011124E251FC4F51
:105A10002683E6E0E80F9E9FF0011124E251FC4F3F
:105A20002683E8E0E80F9E9FF0011124E251FC4F2D
:105A30002683EAE0E80F9E9FF0011124E251FC4F1B
:105A400026830E94751330E0F090A8030C943F2544
:105A50004091A70380917606242F220F220F220F58
:105A60002B5F30E0682F70E0F901A1E18A9FE00D23
:105A7000F11D1124E05CFC4F808190E001968031A3
:105A8000910514F08FE090E051E1569FF001579F8F
:105A9000F00D11242E0F3F1FF901E05CFC4F8083B5
:105AA000FC01E352FC4F908183E1849FF0011124BB
:105AB000E251FC4F9683E2E0E40F8E9FF001112447
:105AC000E251FC4F9683E4E0E40F8E9FF001112435
:105AD000E251FC4F9683E6E0E40F8E9FF001112423
